:1000000063C0000089C0000087C0000085C00000F8
:1000100083C0000081C000007FC000007DC00000E0
:100020007BC0000079C0000077C0000075C00000F0
:1000300073C0000071C000006FC000006DC0000000
:100040000C94022369C000000C94B12B0C94DD2B9E
:1000500063C0000061C000005FC000005DC0000020
:100060005BC0000059C00000000000002400270011
:100070002A0000000000250028002B0000000000DE
:1000800023002600290004040404040404040202DA
:100090000202020203030303030301020408102007
:1000A0004080010204081020010204081020000012
:1000B0000008000201000003040700000000000027
:1000C00000002601442C320111241FBECFEFD8E0DE
:1000D000DEBFCDBF11E0A0E0B1E0E0E5F7E602C091
:1000E00005900D92A83EB107D9F724E0A8EEB1E043
:1000F00001C01D92AF35B207E1F710E0C3E6D0E0D2
:1001000004C02197FE010E943932C136D107C9F7D8
:100110000E9422200C949C3373CFCF93DF9300D0A6
:1001200000D000D0CDB7DEB789836A835C834B8370
:100130003E832D8320E84A81698188EE91E009D1D0
:100140008B819C81FC0180819181A281B381AC0172
:10015000BD0188EE91E0FED28D819E81FC018081FF
:100160009181A281B381AC01BD0188EE91E014D3ED
:10017000000026960FB6F894DEBF0FBECDBFDF910C
:10018000CF910895CF93DF9300D000D000D0CDB7AA
:10019000DEB79A8389837C836B835E834D838B81F7
:1001A0009C81FC0180819181A281B381AC01BD0160
:1001B00088EE91E0CFD28D819E81FC01808191817A
:1001C000A281B381AC01BD0188EE91E0E5D261E08E
:1001D00088EE91E091D2DC01CB0129813A81F901CD
:1001E00080839183A283B383000026960FB6F89490
:1001F000DEBF0FBECDBFDF91CF910895CF93DF93C8
:1002000000D000D0CDB7DEB79A8389837C836B831F
:1002100089819A81019739F48B819C81019619F427
:1002200088EE91E049D089819A81892B39F48B81BC
:100230009C81019619F488EE91E064D000000F9043
:100240000F900F900F90DF91CF910895CF93DF9390
:10025000CDB7DEB76FEF7FEF81E090E0CFDFDF91CA
:10026000CF910895CF93DF93CDB7DEB76FEF7FEFD8
:1002700080E090E0C3DFDF91CF910895CF93DF93CB
:10028000CDB7DEB7F89481E0DF91CF910895CF9399
:10029000DF9300D0CDB7DEB79A8389838FE590E0F6
:1002A00029813A81F9012081FC01208300000F900F
:1002B0000F90DF91CF910895CF93DF9300D0CDB70A
:1002C000DEB79A83898321EB31E089819A81FC0131
:1002D0003183208389819A81FC01158216821782DD
:1002E000108629813A8180E090E0A0E8BFE3F9011F
:1002F00081879287A387B48700000F900F90DF91CA
:10030000CF910895CF93DF9300D0CDB7DEB79A8316
:10031000898321EB31E089819A81FC01318320833B
:1003200000000F900F90DF91CF910895CF93DF934E
:1003300000D0CDB7DEB79A83898389819A81E2DFC5
:1003400089819A810E94502C0F900F90DF91CF915C
:100350000895CF93DF9300D000D01F92CDB7DEB7C2
:100360009A8389836B834C832D8389819A812C8125
:10037000FC01228389819A812B81FC01238389815D
:100380009A81FC01828161E00E94F32489819A8133
:10039000FC01838162E00E94F32489819A816D814E
:1003A00020D000000F900F900F900F900F90DF91D2
:1003B000CF910895CF93DF9300D0CDB7DEB79A8366
:1003C000898389819A81FC0183810E94A52621E08D
:1003D000892B09F020E0822F0F900F90DF91CF91B1
:1003E0000895CF93DF9300D01F92CDB7DEB79A83E5
:1003F00089836B838B81882F90E08034910561F035
:100400008038910519F0809769F012C089819A812E
:1004100021E0FC0124830CC089819A8123E0FC0146
:10042000248306C089819A8122E0FC012483000094
:1004300000000F900F900F90DF91CF910895CF9310
:10044000DF93CDB7DEB72E970FB6F894DEBF0FBEA1
:10045000CDBF9E878D878D859E8540E050E0BA0197
:10046000A5D01D821E821F82188619861A861B86B9
:1004700019828FE590E0FC0180818C87FFDE8A8302
:100480008A81882309F44AC08D859E85FC012281DA
:100490008D859E85FC01838141E0622F0E940E279D
:1004A0008B878D859E85FC0122818D859E85FC0133
:1004B000838141E0622F0E940E278A878D859E8569
:1004C000FC0122818D859E85FC01838141E0622FA4
:1004D0000E940E2789871C821B828D859E85FC01C8
:1004E0008481882F90E02B813C8128173907A0F464
:1004F0008D859E85FC01828161E00E941D268D858F
:100500009E85FC01828160E00E941D268B819C817A
:1005100001969C838B83E1CF1A82B2CFCE010C96D9
:10052000B6DE8B8588231CF48FEF898301C0198286
:100530008981882F90E0A0E0B0E0582F442733272E
:1005400022278B85882F90E0A0E0B0E0DC0199277E
:100550008827282B392B4A2B5B2B8A85882F90E004
:10056000A0E0B0E0BA2FA92F982F8827282B392B8D
:100570004A2B5B2B8985882F90E0A0E0B0E0822B8E
:10058000932BA42BB52B8D839E83AF83B8878D814E
:100590009E81AF81B885BC01CD012E960FB6F8942F
:1005A000DEBF0FBECDBFDF91CF910895CF93DF9314
:1005B00000D000D000D0CDB7DEB79A8389834B83BB
:1005C0005C836D837E8389819A81F4DE982F81E03C
:1005D0008927882349F08B819C81AD81BE81BC0134
:1005E000CD010E94FE23EFCF000026960FB6F894AF
:1005F000DEBF0FBECDBFDF91CF910895CF93DF93C4
:10060000CDB7DEB728970FB6F894DEBF0FBECDBFCB
:100610009F838E83688719821A821B821C821D82A7
:100620009D8188859817D0F48E819F8108DF9B017A
:10063000AC0189819A81AB81BC81820F931FA41F79
:10064000B51F89839A83AB83BC8360E070E0CB01E4
:100650000E94FE238D818F5F8D83E2CF8885282FB6
:1006600030E040E050E089819A81AB81BC81BC01DF
:10067000CD010E941D32DA01C901BC01CD012896CD
:100680000FB6F894DEBF0FBECDBFDF91CF910895B6
:10069000EF92FF920F931F93CF93DF9300D01F929F
:1006A000CDB7DEB79A8389836B8389819A816B8109
:1006B000A5DF9B01AC0189819A81FC01858196812E
:1006C000A781B08579018A01E81AF90A0A0B1B0B88
:1006D000D801C701BC01CD010E949821DC01CB01EA
:1006E000BC01CD010F900F900F90DF91CF911F9122
:1006F0000F91FF90EF900895EF92FF920F931F9349
:10070000CF93DF9300D01F92CDB7DEB79A83898352
:100710006B8389819A816B81BBDF7B018C0189812D
:100720009A81FC0181859285A385B4859C01AD01E8
:10073000C801B7010E94FD20DC01CB01BC01CD0145
:100740000F900F900F90DF91CF911F910F91FF901D
:10075000EF900895CF93DF9300D000D000D0CDB7B5
:10076000DEB79A8389834B835C836D837E83298183
:100770003A818B819C81AD81BE81F901818792870D
:10078000A387B487000026960FB6F894DEBF0FBE8D
:10079000CDBFDF91CF910895CF93DF9300D000D0EC
:1007A00000D0CDB7DEB79A8389834B835C836D839A
:1007B0007E8329813A818B819C81AD81BE81F90143
:1007C00085839683A783B087000026960FB6F8949A
:1007D000DEBF0FBECDBFDF91CF910895CF93DF93E2
:1007E000CDB7DEB761E083E00E94F32461E08BE0E7
:1007F0000E94F32480EB90E0FC01108281EB90E0FA
:10080000FC01108280EB90E023EAFC01208381EB65
:1008100090E022E0FC01208384EB90E0FC01108258
:1008200083EB90E0FC0110820000DF91CF910895EE
:10083000CF93DF9300D0CDB7DEB789836A8384EB93
:1008400090E02981FC01208383EB90E02A81FC0168
:10085000208300000F900F90DF91CF910895CF93E8
:10086000DF9300D000D0CDB7DEB79A8389837C8335
:100870006B8389819A812B813C81FC0131832083A8
:1008800000000F900F900F900F90DF91CF9108957F
:10089000CF93DF9300D0CDB7DEB79A838983898168
:1008A0009A81FC01808191810E9486330F900F9084
:1008B000DF91CF910895CF93DF9300D0CDB7DEB70E
:1008C0009A83898389819A81E3DF0F900F90DF916A
:1008D000CF910895CF93DF9300D01F92CDB7DEB7AD
:1008E0009A8389836B8389819A81FC0180819181BC
:1008F0006B810E948E3389819A810F900F900F90A7
:10090000DF91CF910895CF93DF9300D01F92CDB7A1
:10091000DEB79A8389836B8389819A81CCDF982F94
:100920008B81891729F089819A816B81D3DF02C07D
:1009300089819A810F900F900F90DF91CF91089548
:10094000CF93DF9300D000D0CDB7DEB79A838983F1
:100950007C836B8389819A812B813C81FC0131836B
:10096000208300000F900F900F900F90DF91CF9198
:100970000895CF93DF9300D000D0CDB7DEB79C832E
:100980008B838B819C81FC0180819181BC01CE0194
:10099000019665DF89819A810F900F900F900F90DB
:1009A000DF91CF910895CF93DF9300D0CDB7DEB71D
:1009B0009A83898389819A81FC01808191819C013C
:1009C0002F5F3F4F89819A81FC0131832083898188
:1009D0009A810F900F90DF91CF9108950F931F93FD
:1009E000CF93DF93CDB7DEB7E9970FB6F894DEBFAC
:1009F0000FBECDBF9AAB89AB6BAB2CAB3DAB4EAB57
:100A00005FAB19AF08AF89A99AA98130944008F06B
:100A100078C18CA99DA99E8F8D8F8BA9882371F594
:100A200088AD99AD9A8389831C821B828B819C81BE
:100A30002D8D3E8D8217930708F064C11F8E89A902
:100A40009AA99E01215E3F4FA901BC0185EF91E06B
:100A5000A8D189819A819C012F5F3F4F3A832983D6
:100A60002F8DFC01208389A99AA901969AAB89ABA5
:100A70008B819C8101969C838B83D8CF8BA98130FD
:100A800071F588AD99AD9E838D8318861F828F8105
:100A900098852D8D3E8D8217930708F033C118A2DB
:100AA00089A99AA99E01205E3F4FA901BC0185EF4B
:100AB00091E0C1D18D819E819C012F5F3F4F3E838C
:100AC0002D8328A1FC01208389A99AA901969AABBC
:100AD00089AB8F819885019698878F83D8CF8BA912
:100AE000823089F588AD99AD9A8789871C861B86E7
:100AF0008B859C852D8D3E8D8217930708F002C152
:100B00001AA219A289A99AA99E012F5D3F4FA90196
:100B1000BC0185EF91E0D9D189859A859C012E5F32
:100B20003F4F3A87298729A13AA1FC0131832083CD
:100B300089A99AA902969AAB89AB8B859C85019667
:100B40009C878B87D5CF8BA9833089F588AD99ADEC
:100B50009E878D87188A1F868F8598892D8D3E8D5B
:100B60008217930708F0CEC01CA21BA289A99AA9DC
:100B70009E012D5D3F4FA901BC0185EF91E0EFD1B2
:100B80008D859E859C012E5F3F4F3E872D872BA133
:100B90003CA1FC013183208389A99AA902969AABD2
:100BA00089AB8F8598890196988B8F87D5CF8BA934
:100BB0008430B1F588AD99AD9A8B898B1C8A1B8ADC
:100BC0008B899C892D8D3E8D8217930708F09AC0E2
:100BD0001DA21EA21FA218A689A99AA99E012B5D7B
:100BE0003F4FA901BC0185EF91E003D229893A89E1
:100BF000C90104969A8B898B8DA19EA1AFA1B8A53E
:100C0000F90180839183A283B38389A99AA9049669
:100C10009AAB89AB8B899C8901969C8B8B8BD0CFAF
:100C20008BA98530B1F588AD99AD9E8B8D8B188ED3
:100C30001F8A8F89988D2D8D3E8D8217930708F01E
:100C400061C019A61AA61BA61CA689A99AA99E016D
:100C5000275D3F4FA901BC0185EF91E014D22D899A
:100C60003E89C90104969E8B8D8B89A59AA5ABA55B
:100C7000BCA5F90180839183A283B38389A99AA932
:100C800004969AAB89AB8F89988D0196988F8F8B3C
:100C9000D0CF8BA98630B1F588AD99AD9A8F898F69
:100CA0001C8E1B8E8B8D9C8D2D8D3E8D82179307F8
:100CB00048F51DA61EA61FA618AA89A99AA99E01D5
:100CC000235D3F4FA901BC0185EF91E026D2298D1C
:100CD0003A8DC90104969A8F898F8DA59EA5AFA5DF
:100CE000B8A9F90180839183A283B38389A99AA9C2
:100CF00004969AAB89AB8B8D9C8D01969C8F8B8FC4
:100D0000D1CF0000E9960FB6F894DEBF0FBECDBF7D
:100D1000DF91CF911F910F910895CF93DF93CDB7BE
:100D2000DEB728970FB6F894DEBF0FBECDBF9C8309
:100D30008B837E836D8358874F838B819C81813029
:100D4000944028F58F8198859A83898389819A8137
:100D50009C01215031093A83298321E0892B09F430
:100D600020E02223A9F08D819E819C012F5F3F4FBF
:100D70003E832D832B813C81AC01B90185EF91E04D
:100D800016D28B819C8101969C838B83DFCF0000E0
:100D900028960FB6F894DEBF0FBECDBFDF91CF917E
:100DA00008950F931F93CF93DF93CDB7DEB72E97A0
:100DB0000FB6F894DEBF0FBECDBF9A8789877C87B8
:100DC0006B875E874D872B853C85CE010796B901E1
:100DD000B7DD8D859E859A83898381E090E09C8331
:100DE0008B838B819C81892BC9F0CE010796C1DD55
:100DF0009E838D8309811A81C80101969A83898314
:100E0000CE01059658DDF80180838B819C81019786
:100E10009C838B83CE010796C6DDE3CF8D859E85AF
:100E20002E960FB6F894DEBF0FBECDBFDF91CF91E7
:100E30001F910F9108950F931F93CF93DF93CDB719
:100E4000DEB72E970FB6F894DEBF0FBECDBF9A87E0
:100E500089877C876B875E874D872B853C85CE0194
:100E60000796B9016DDD8D859E859A83898381E022
:100E700090E09C838B838B819C81892BC9F0CE0170
:100E8000079677DD9E838D8309811A81C8010196BB
:100E90009A838983CE0105960EDDF80180838B81CC
:100EA0009C8101979C838B83CE0107967CDDE3CFE9
:100EB0008D859E852E960FB6F894DEBF0FBECDBFF2
:100EC000DF91CF911F910F9108950F931F93CF93AF
:100ED000DF93CDB7DEB72E970FB6F894DEBF0FBE07
:100EE000CDBF9A8789877C876B875E874D872B85E7
:100EF0003C85CE010796B90123DD8D859E859A83B9
:100F0000898382E090E09C838B838B819C81892BF9
:100F1000C9F0CE0107962DDD9E838D8309811A814C
:100F2000C80101969A838983CE010596C4DCF80135
:100F300080838B819C8101979C838B83CE01079654
:100F400032DDE3CF8D859E852E960FB6F894DEBFF9
:100F50000FBECDBFDF91CF911F910F9108950F93D9
:100F60001F93CF93DF93CDB7DEB72E970FB6F894CC
:100F7000DEBF0FBECDBF9A8789877C876B875E8770
:100F80004D872B853C85CE010796B901D9DC8D852F
:100F90009E859A83898382E090E09C838B838B81FA
:100FA0009C81892BC9F0CE010796E3DC9E838D835B
:100FB00009811A81C80101969A838983CE01059619
:100FC0007ADCF80180838B819C8101979C838B83E1
:100FD000CE010796E8DCE3CF8D859E852E960FB671
:100FE000F894DEBF0FBECDBFDF91CF911F910F915F
:100FF00008950F931F93CF93DF93CDB7DEB72E974E
:101000000FB6F894DEBF0FBECDBF9A8789877C8765
:101010006B875E874D872B853C85CE010796B9018E
:101020008FDC8D859E859A83898384E090E09C8304
:101030008B838B819C81892BC9F0CE01079699DC2B
:101040009E838D8309811A81C80101969A838983C1
:10105000CE01059630DCF80180838B819C8101975D
:101060009C838B83CE0107969EDCE3CF8D859E8586
:101070002E960FB6F894DEBF0FBECDBFDF91CF9195
:101080001F910F9108950F931F93CF93DF93CDB7C7
:10109000DEB72E970FB6F894DEBF0FBECDBF9A878E
:1010A00089877C876B875E874D872B853C85CE0142
:1010B0000796B90145DC8D859E859A83898384E0F6
:1010C00090E09C838B838B819C81892BC9F0CE011E
:1010D00007964FDC9E838D8309811A81C801019692
:1010E0009A838983CE010596E6DBF80180838B81A4
:1010F0009C8101979C838B83CE01079654DCE3CFC0
:101100008D859E852E960FB6F894DEBF0FBECDBF9F
:10111000DF91CF911F910F9108950F931F93CF935C
:10112000DF93CDB7DEB72E970FB6F894DEBF0FBEB4
:10113000CDBF9A8789877C876B875E874D872B8594
:101140003C85CE010796B901FBDB8D859E859A8390
:10115000898384E090E09C838B838B819C81892BA5
:10116000C9F0CE01079605DC9E838D8309811A8123
:10117000C80101969A838983CE0105969CDBF8010C
:1011800080838B819C8101979C838B83CE01079602
:101190000ADCE3CF8D859E852E960FB6F894DEBFD0
:1011A0000FBECDBFDF91CF911F910F910895CF93C7
:1011B000DF93CDB7DEB72E970FB6F894DEBF0FBE24
:1011C000CDBF9A8789877C876B875E874D872B8504
:1011D0003C85CE010796B901B3DB8D859E859A8348
:1011E000898381E090E09C838B838B819C81892B18
:1011F000D9F0CE010796BDDB9E838D8389819A81CC
:101200009C012F5F3F4F3A832983FC012081CE014F
:101210000596622F78DB8B819C8101979C838B8361
:10122000CE010796C0DBE1CF8D859E852E960FB649
:10123000F894DEBF0FBECDBFDF91CF910895CF935D
:10124000DF9300D000D0CDB7DEB79A8389837C834B
:101250006B832B813C8189819A81A901BC018AEB36
:1012600092E00E94B03100000F900F900F900F900D
:10127000DF91CF910895CF93DF93CDB7DEB78AEB9F
:1012800092E00E94F028DF91CF910895CF93DF93F1
:1012900000D0CDB7DEB78AEB92E00E94A3289A83F4
:1012A000898389819A810F900F90DF91CF91089562
:1012B000EF92FF920F931F93CF93DF93CDB7DEB7DB
:1012C0002D970FB6F894DEBF0FBECDBF8F83798701
:1012D00068875B874A873D872C870DB71EB78DB718
:1012E0009EB77C0188859985880F991F01979C83FB
:1012F0008B8388859985880F991F2DB73EB7281B4A
:10130000390B0FB6F8943EBF0FBE2DBF8DB79EB7F9
:1013100001969E838D838F81882F90E0880F991F7F
:101320008A5F9E4FFC01208131818D819E8148859D
:101330005985BA01F90109951A82198289819A8120
:101340002885398582179307B8F48A859B859C0187
:101350002F5F3F4F3B872A874D815E8129813A81EC
:10136000240F351FF9012081FC01208389819A8196
:1013700001969A838983E2CF8C859D8521E0FC01CB
:1013800020830FB6F894FEBE0FBEEDBE00000FB670
:10139000F8941EBF0FBE0DBF2D960FB6F894DEBF9A
:1013A0000FBECDBFDF91CF911F910F91FF90EF90B6
:1013B0000895AF92CF92DF92EF920F931F93CF9346
:1013C000DF93CDB7DEB7C556D1090FB6F894DEBFAF
:1013D0000FBECDBFFE01E75AFF4F8083CE01865A74
:1013E0009F4FFC0171836083CE01845A9F4FFC01A3
:1013F00051834083CE01825A9F4FFC013183208369
:10140000CE01805A9F4FFC0111830083CE018E597B
:101410009F4FFC01E082CE018D599F4FFC01D1828C
:10142000C082CE018B599F4FFC01A082CE018D5905
:101430009F4F21E0FC0180819181892B09F420E0FC
:101440002F87CE01805A9F4F21E0FC01808191813E
:10145000892B09F420E0288BCE01845A9F4FFC0190
:10146000808191819A8B898BCE018B599F4FFC0192
:101470008081282F30E08F85882F90E0289FA00161
:10148000299F500D389F500D1124CE018E599F4F2A
:10149000FC018081282F30E08889882F90E0289FE8
:1014A000B001299F700D389F700D1124CB019A0156
:1014B000280F391FCE01865A9F4FFC0180819181F0
:1014C000820F931F9C8B8B8BCE01875A9F4FFC0101
:1014D0008081882F90E0880F991F865F9E4FFC01C6
:1014E00080819181FC0109959E8B8D8B2D893E8990
:1014F0008B899C89281739076CF51A821982898192
:101500009A819E01265A3F4FF9012081318182172D
:101510009307B8F4CE01845A9F4FFC0180819181DA
:101520009E01245A3F4FAC014F5F5F4FF901518339
:101530004083FC01108289819A8101969A83898374
:10154000DECFCE01825A9F4FFC0180819181FC0148
:101550001082B1C18F85882309F48AC01C821B8246
:10156000CE018B599F4FFC018081882F90E02B8109
:101570003C81281739070CF07BC0CE01875A9F4F5A
:10158000FC018081882F90E0880F991F865F9E4F15
:10159000FC0180819181FC01099521E0892B09F0F2
:1015A00020E0222369F11E821D828D819E819E0191
:1015B000265A3F4FF9012081318182179307B8F4F1
:1015C000CE01845A9F4FFC01808191819E01245A53
:1015D0003F4FAC014F5F5F4FF90151834083FC01E6
:1015E00010828D819E8101969E838D83DECFCE01F8
:1015F000825A9F4FFC0180819181FC0110825BC166
:10160000CE01875A9F4FFC018081882F90E0880F80
:10161000991F885F9E4FFC0180819181FC01099593
:101620008F8B8B819C819E012D593F4FF901208129
:101630003181820F931FFC0180819F89981791F05F
:10164000CE018D599F4FFC0180819181FC018081E9
:101650009F89981719F41C821B8204C08FEF9FEF9B
:101660009C838B838B819C8101969C838B8378CF19
:10167000CE018E599F4FFC018081282F30E0888950
:10168000882F90E0289FA001299F500D389F500D72
:1016900011249A01CE01865A9F4FFC0180819181CD
:1016A000820F931F9C8B8B8BCE01875A9F4FFC011F
:1016B0008081882F90E0880F991F865F9E4FFC01E4
:1016C00080819181FC0109959E8B8D8B2D893E89AE
:1016D0008B899C89281739076CF518861F828F81A2
:1016E00098859E01265A3F4FF9012081318182174A
:1016F0009307B8F4CE01845A9F4FFC0180819181F9
:101700009E01245A3F4FAC014F5F5F4FF901518357
:101710004083FC0110828F819885019698878F8382
:10172000DECFCE01825A9F4FFC0180819181FC0166
:101730001082C1C0CE01825A9F4FFC0120813181AD
:10174000CE01845A9F4FFC0140815181CE01865ABF
:101750009F4FFC0160817181CE01875A9F4FFC0130
:101760008081A6DD8889882309F4A5C01A86198698
:10177000CE018E599F4FFC018081882F90E02985F2
:101780003A85281739070CF096C0CE01875A9F4F2B
:10179000FC018081882F90E0880F991F865F9E4F03
:1017A000FC0180819181FC01099521E0892B09F0E0
:1017B00020E0222369F11C861B868B859C859E0177
:1017C000265A3F4FF9012081318182179307B8F4DF
:1017D000CE01845A9F4FFC01808191819E01245A41
:1017E0003F4FAC014F5F5F4FF90151834083FC01D4
:1017F00010828B859C8501969C878B87DECFCE01DE
:10180000825A9F4FFC0180819181FC01108253C05C
:10181000CE01875A9F4FFC018081882F90E0880F6E
:10182000991F885F9E4FFC0180819181FC01099581
:10183000888F89859A859E01205A3F4FF901208122
:101840003181820F931FFC018081988D981769F177
:101850001E861D868D859E859E01265A3F4FF90165
:101860002081318182179307B8F4CE01845A9F4FAB
:10187000FC01808191819E01245A3F4FAC014F5F52
:101880005F4FF90151834083FC0110828D859E8555
:1018900001969E878D87DECFCE01825A9F4FFC0135
:1018A00080819181FC01108206C089859A8501960C
:1018B0009A8789875DCFCB59DF4F0FB6F894DEBF8B
:1018C0000FBECDBFDF91CF911F910F91EF90DF90B1
:1018D000CF90AF900895CF93DF931F92CDB7DEB72F
:1018E000898389818823E1F08981882F90E0092EFE
:1018F000000CAA0BBB0B0197A109B1098830910517
:10190000A105B10578F48857934FFC010C94393246
:10191000940C940C940C940C940C940C940C940CC7
:10192000000003C0000001C000000F90DF91CF91C4
:1019300008958F929F92AF92CF92EF920F93CF9391
:10194000DF93CDB7DEB764970FB6F894DEBF0FBE56
:10195000CDBF89877B876A875D874C872E870F87F6
:10196000E88AC98AAA8A9C8A8B8A8E85882F90E009
:101970009A8389838C859D859C838B838985882325
:1019800009F035C18985882F90E0092E000CAA0B3B
:10199000BB0B0197A109B10988309105A105B105DB
:1019A00068F48A52934FFC010C943932E00CE00C3D
:1019B000E00CE00CE00CE00CE00CE00C000001C0DE
:1019C000000089819A81089721F484E090E09A834D
:1019D000898349815A812C853D85429FC001439F5F
:1019E000900D529F900D11249A83898389898823B1
:1019F00029F48AE090E09E838D8314C08989813028
:101A000029F480E190E09E838D830CC08989823027
:101A100029F488E090E09E838D8304C082E090E00A
:101A20009E838D838985882309F0E4C08F85882370
:101A300009F03FC08AA19BA1892B91F08091BA0245
:101A40009091BB020296FC01208131818CA1482F2C
:101A500050E08AA19BA1BC018AEB92E0F9010995B3
:101A60008091BA029091BB020296FC0120813181E3
:101A700049815A818A859B85BC018AEB92E0F901F4
:101A800009958F8D98A1892B09F4B4C08091BA0271
:101A90009091BB020296FC012081318189A1482FDF
:101AA00050E08F8D98A1BC018AEB92E0F901099575
:101AB000A1C08B899C89BC018AEB92E00E94DD2C3D
:101AC0008889882F90E0092E000CAA0BBB0B873069
:101AD0009105A105B10508F08DC08E58924FFC010B
:101AE0000C943932790D830D8D0D970DA10DAB0D31
:101AF000B50D8F85482F50E06B812D813E818A8501
:101B00009B8587D077C08F85482F50E06B812D81D2
:101B10003E818A859B85CED06DC08F85482F50E051
:101B20006B812D813E818A859B8517D163C08F850E
:101B3000482F50E06B812D813E818A859B8564D141
:101B400059C08F85482F50E06B812D813E818A8559
:101B50009B85B1D14FC08F85482F50E06B812D817F
:101B60003E818A859B85FAD145C08A859B85988769
:101B70008F838B819C819C01215031093C832B8375
:101B800021E0892B09F420E0222399F18F8581300F
:101B9000B9F48A89482F50E08F8198859C012C5F89
:101BA0003F4F38872F83FC0180819181A281B381CF
:101BB0009A01AC01BD018AEB92E00E94272ED9CF99
:101BC0008A89482F50E08F8198859C012C5F3F4F78
:101BD00038872F83FC0180819181A281B3819A0192
:101BE000AC01BD018AEB92E00E94512FC2CF0000F0
:101BF00001C0000064960FB6F894DEBF0FBECDBFE3
:101C0000DF91CF910F91EF90CF90AF909F908F90F9
:101C10000895CF93DF93CDB7DEB729970FB6F89429
:101C2000DEBF0FBECDBF9C838B836D835F834E83EE
:101C3000398728878B819C819A8389838D819FEF47
:101C4000980F9D8391E0882309F490E0992341F156
:101C50008E819F81019791F489819A819C012F5FE8
:101C60003F4F3A832983FC01208188859985AC0107
:101C7000622F8AEB92E00E94112DE0CF89819A8138
:101C80009C012F5F3F4F3A832983FC012081888587
:101C90009985AC01622F8AEB92E00E945E2ECECF36
:101CA000000029960FB6F894DEBF0FBECDBFDF91BE
:101CB000CF910895CF93DF93CDB7DEB729970FB6B5
:101CC000F894DEBF0FBECDBF9C838B836D835F8393
:101CD0004E83398728878B819C819A8389838D8164
:101CE0009FEF980F9D8391E0882309F490E099235A
:101CF00051F18E819F81019799F489819A819C018C
:101D00002E5F3F4F3A832983FC0180819181288592
:101D10003985A901BC018AEB92E00E94562DDFCFE4
:101D200089819A819C012E5F3F4F3A832983FC0170
:101D30008081918128853985A901BC018AEB92E0D7
:101D40000E94B82ECCCF000029960FB6F894DEBFC3
:101D50000FBECDBFDF91CF910895CF93DF93CDB765
:101D6000DEB729970FB6F894DEBF0FBECDBF9C83B8
:101D70008B836D835F834E83398728878B819C811A
:101D80009A8389838D819FEF980F9D8391E08823AB
:101D900009F490E0992371F18E819F810197A9F454
:101DA00089819A819C012C5F3F4F3A832983FC01F2
:101DB00080819181A281B38128853985AC01BD01E3
:101DC0008AEB92E00E94EE2DDDCF89819A819C0101
:101DD0002C5F3F4F3A832983FC0180819181A2814E
:101DE000B38128853985AC01BD018AEB92E00E9460
:101DF0001C2FC8CF000029960FB6F894DEBF0FBE87
:101E0000CDBFDF91CF910895CF93DF93CDB7DEB7EC
:101E100029970FB6F894DEBF0FBECDBF9C838B838E
:101E20006D835F834E83398728878B819C819A835A
:101E300089838D819FEF980F9D8391E0882309F41A
:101E400090E0992371F18E819F810197A9F4898196
:101E50009A819C012F5F3F4F3A832983FC01808147
:101E6000082E000C990B28853985A901BC018AEB45
:101E700092E00E94322DDDCF89819A819C012F5FF3
:101E80003F4F3A832983FC018081082E000C990B77
:101E900028853985A901BC018AEB92E00E94892E30
:101EA000C8CF000029960FB6F894DEBF0FBECDBF95
:101EB000DF91CF910895CF93DF93CDB7DEB7299708
:101EC0000FB6F894DEBF0FBECDBF9C838B836D83AE
:101ED0005F834E83398728878B819C819A8389838E
:101EE0008D819FEF980F9D8391E0882309F490E006
:101EF000992351F18E819F81019799F489819A816B
:101F00009C012E5F3F4F3A832983FC0180819181A0
:101F100028853985A901BC018AEB92E00E94322D07
:101F2000DFCF89819A819C012E5F3F4F3A832983BD
:101F3000FC018081918128853985A901BC018AEB4A
:101F400092E00E94892ECCCF000029960FB6F8941B
:101F5000DEBF0FBECDBFDF91CF910895CF93DF934A
:101F6000CDB7DEB729970FB6F894DEBF0FBECDBF51
:101F70009C838B836D835F834E83398728878B8116
:101F80009C819A8389838D819FEF980F9D8391E037
:101F9000882309F490E0992371F18E819F81019744
:101FA000A9F489819A819C012C5F3F4F3A83298350
:101FB000FC0180819181A281B38128853985AC01A2
:101FC000BD018AEB92E00E94792DDDCF89819A8153
:101FD0009C012C5F3F4F3A832983FC0180819181D2
:101FE000A281B38128853985AC01BD018AEB92E0DD
:101FF0000E94E72EC8CF000029960FB6F894DEBFE6
:102000000FBECDBFDF91CF910895CF93DF93CDB7B2
:10201000DEB786EF91E09C0123563F4FF901208106
:102020002F5F83569F4FFC01208386EF91E08356FC
:102030009F4FFC0180818A3030F086EF91E083561B
:102040009F4FFC0110820000DF91CF910895CF9344
:10205000DF93CDB7DEB728970FB6F894DEBF0FBE7B
:10206000CDBF6D837E838F8398878D819E81AF8165
:10207000B885BF7720E030E040E859E5BC01CD01EC
:102080000E94F92088230CF056C020E030E040E0A8
:102090005FE36D817E818F8198850E949B228823DA
:1020A000BCF020E030E040E05FE36D817E818F8115
:1020B00098850E948220DC01CB01BC01CD010E94E9
:1020C000D321DC01CB0189839A83AB83BC833BC0E2
:1020D00020E030E040E05FEB6D817E818F8198856C
:1020E0000E949B22181684F420E030E0A9016D8143
:1020F0007E818F8198850E949F22DC01CB0189839C
:102100009A83AB83BC831FC020E030E040E05FE3F4
:102110006D817E818F8198850E948120DC01CB01B9
:10212000BC01CD010E94E620DC01CB0189839A83AA
:10213000AB83BC8308C08D819E81AF81B8858983C4
:102140009A83AB83BC8389819A81AB81BC81BC01BA
:10215000CD0128960FB6F894DEBF0FBECDBFDF913C
:10216000CF910895CF93DF93CDB7DEB728970FB601
:10217000F894DEBF0FBECDBF6D837E838F839887BB
:102180008D819E81AF81B885BF7720E030E040E04F
:102190005BE4BC01CD010E94F92088230CF056C0FD
:1021A00020E030E040E05FE36D817E818F819885A3
:1021B0000E949B228823BCF020E030E040E05FE3F7
:1021C0006D817E818F8198850E948220DC01CB0108
:1021D000BC01CD010E94D321DC01CB0189839A830C
:1021E000AB83BC833BC020E030E040E05FEB6D811F
:1021F0007E818F8198850E949B22181684F420E0AE
:1022000030E0A9016D817E818F8198850E949F2297
:10221000DC01CB0189839A83AB83BC831FC020E0A0
:1022200030E040E05FE36D817E818F8198850E9480
:102230008120DC01CB01BC01CD010E94E620DC0144
:10224000CB0189839A83AB83BC8308C08D819E8137
:10225000AF81B88589839A83AB83BC8389819A8156
:10226000AB81BC81BC01CD0128960FB6F894DEBFCE
:102270000FBECDBFDF91CF9108958F929F92AF9205
:10228000BF92CF92DF92EF92FF920F931F93CF9363
:10229000DF93CDB7DEB7E0970FB6F894DEBF0FBE81
:1022A000CDBF86EF91E083569F4FFC01808188234C
:1022B00009F043C0CE01C096A12CC12CD12CE12C39
:1022C00000E010E09C0143E753E06CE170E080E047
:1022D00070D888A9882381F04CE150E063E773E06F
:1022E00087E593E00E946D334CE150E067E573E0D1
:1022F00081E090E00E948D060FEB13E023E030E0D8
:1023000040E050E066E085E090E00E94EE0403EBE0
:1023100013E023E030E040E050E066E081E190E04F
:102320000E94EE040FEA13E021E030E040E050E0CC
:1023300066E081E090E00E94EE048091F1039091CC
:10234000F203A091F303B091F40320912C0130919A
:102350002D0140912E0150912F01BC01CD010E9411
:10236000F920882381F080912C0190912D01A0917A
:102370002E01B0912F018093F1039093F203A0936B
:10238000F303B093F4038091F5039091F603A091C9
:10239000F703B091F8032091300130913101409161
:1023A000320150913301BC01CD010E94F9208823F4
:1023B00081F08091300190913101A0913201B09172
:1023C00033018093F5039093F603A093F703B09342
:1023D000F8038091ED039091EE03A091EF03B0918B
:1023E000F003209134013091350140913601509134
:1023F0003701BC01CD010E94F920882381F0809132
:10240000340190913501A0913601B091370180934C
:10241000ED039093EE03A093EF03B093F00318A69F
:1024200019A61AA61BA68091F1039091F203A09120
:10243000F303B091F4038CA79DA7AEA7BFA780912B
:10244000F5039091F603A091F703B091F803BC0156
:10245000CD01FDDDDC01CB018C8B9D8BAE8BBF8B69
:1024600020E030E040E05FE46C897D898E899F89BF
:102470000E94F920882314F520E030E040E05FEC72
:102480006C897D898E899F890E949B2288236CF0AC
:102490006C897D898E899F890E946521DC01CB0131
:1024A0008CA39DA3AEA3BFA311C080E090E0A0E0E9
:1024B000B0E88CA39DA3AEA3BFA308C08FEF9FEF8E
:1024C000AFEFBFE78CA39DA3AEA3BFA3AE014C5D4E
:1024D0005F4F9E01245D3F4FCE018896B9010E9457
:1024E000C2008091AF039091B003A091B103B0916D
:1024F000B20328A539A54AA55BA5BC01CD010E9460
:102500008120DC01CB018093A7039093A803A093C3
:10251000A903B093AA038091A7039091A803A09167
:10252000A903B091AA032091440130914501409143
:10253000460150914701BC01CD010E949B22181613
:102540006CF48091440190914501A0914601B091B5
:1025500047018D879E87AF87B88B2FC08091A703D7
:102560009091A803A091A903B091AA0320914801DA
:102570003091490140914A0150914B01BC01CD017C
:102580000E94F92088236CF48091480190914901C0
:10259000A0914A01B0914B018D879E87AF87B88B80
:1025A0000CC08091A7039091A803A091A903B091BA
:1025B000AA038D879E87AF87B88B80914C0190913D
:1025C0004D01A0914E01B0914F012D853E854F8563
:1025D0005889BC01CD010E949F22DC01CB01809370
:1025E0009F039093A003A093A103B093A2038091B3
:1025F0009F039091A003A091A103B091A203209109
:10260000BB033091BC034091BD035091BE03BC019C
:10261000CD010E949F22DC01CB017C018D018091C4
:102620002D0490912E04A0912F04B09130049C01B0
:10263000AD01C801B7010E948120DC01CB017C0102
:102640008D018091580190915901A0915A01B0914A
:102650005B019C01AD01C801B7010E949F22DC0112
:10266000CB01888F998FAA8FBB8F80919F03909108
:10267000A003A091A103B091A2032091B3033091D4
:10268000B4034091B5035091B603BC01CD010E9443
:102690009F22DC01CB017C018D0180912904909166
:1026A0002A04A0912B04B0912C049C01AD01C80117
:1026B000B7010E948220DC01CB01288D398D4A8D23
:1026C0005B8DBC01CD010E948220DC01CB018CA777
:1026D0009DA7AEA7BFA78091240190912501A0914D
:1026E0002601B09127012CA53DA54EA55FA5BC01F3
:1026F000CD010E94F92088236CF4809124019091EF
:102700002501A0912601B09127018D879E87AF8773
:10271000B88B27C080911C0190911D01A0911E01D2
:10272000B0911F012CA53DA54EA55FA5BC01CD0113
:102730000E949B2218166CF480911C0190911D013F
:10274000A0911E01B0911F018D879E87AF87B88B26
:1027500008C08CA59DA5AEA5BFA58D879E87AF8718
:10276000B88B80915C0190915D01A0915E01B09168
:102770005F012D853E854F855889BC01CD010E94A2
:102780009F22DC01CB017C018D0180916001909141
:102790006101A0916201B09163019C01AD01C8018A
:1027A000B7010E948220DC01CB018093A3039093A8
:1027B000A403A093A503B093A6038091A7039091CF
:1027C000A803A091A903B091AA03209164013091BC
:1027D00065014091660150916701BC01CD010E94E5
:1027E0009B2218168CF48091640190916501A09150
:1027F0006601B09167018093A7039093A803A0930B
:10280000A903B093AA0326C08091A7039091A803BF
:10281000A091A903B091AA032091680130916901A8
:1028200040916A0150916B01BC01CD010E94F920D9
:10283000882384F48091680190916901A0916A01D4
:10284000B0916B018093A7039093A803A093A90371
:10285000B093AA038091A7039091A803A091A90324
:10286000B091AA032091C7033091C8034091C903D6
:102870005091CA03BC01CD010E949F22DC01CB0113
:102880007C018D018091350490913604A09137042C
:10289000B09138049C01AD01C801B7010E948120AC
:1028A000DC01CB017C018D01809174019091750157
:1028B000A0917601B09177019C01AD01C801B701EB
:1028C0000E949F22DC01CB018C8F9D8FAE8FBF8F2A
:1028D0008091A7039091A803A091A903B091AA03A6
:1028E0002091BF033091C0034091C1035091C203B6
:1028F000BC01CD010E949F22DC01CB017C018D0136
:102900008091310490913204A0913304B091340449
:102910009C01AD01C801B7010E948220DC01CB01FE
:102920009C01AD016C8D7D8D8E8D9F8D0E948220CE
:10293000DC01CB0189879A87AB87BC87809128010E
:1029400090912901A0912A01B0912B019C01AD0128
:1029500069857A858B859C850E949B2218166CF46C
:102960008091280190912901A0912A01B0912B0119
:102970008D879E87AF87B88B27C08091200190916B
:102980002101A0912201B09123019C01AD01698533
:102990007A858B859C850E94F92088236CF4809130
:1029A000200190912101A0912201B09123018D87F6
:1029B0009E87AF87B88B08C089859A85AB85BC8513
:1029C0008D879E87AF87B88B809178019091790130
:1029D000A0917A01B0917B012D853E854F85588964
:1029E000BC01CD010E949F22DC01CB017C018D0145
:1029F0008091600190916101A0916201B0916301A9
:102A00009C01AD01C801B7010E948220DC01CB010D
:102A10008093AB039093AC03A093AD03B093AE034C
:102A20008091FF0390910004A0910104B0910204F1
:102A3000209138013091390140913A0150913B0188
:102A4000BC01CD010E94F920882381F080913801DA
:102A500090913901A0913A01B0913B018093FF031D
:102A600090930004A0930104B09302048091AB03FF
:102A70009091AC03A091AD03B091AE0320E030E0A3
:102A800040E853E4BC01CD010E949F22DC01CB0150
:102A9000BC01CD0167DBDC01CB0120E030E040E888
:102AA0005FE3BC01CD010E948120DC01CB018D8759
:102AB0009E87AF87B88B8091A3039091A403A091C8
:102AC000A503B091A60320E030E040E853E4BC0148
:102AD000CD010E949F22DC01CB01BC01CD0142DB74
:102AE000DC01CB0120E030E040E85FE3BC01CD0138
:102AF0000E948120DC01CB0188A399A3AAA3BBA3D8
:102B000020E030E040E853E46D857E858F8598892C
:102B10000E94F9208823BCF420E030E0A9016D85F3
:102B20007E858F8598890E949B22882354F06D852D
:102B30007E858F8598890E946A21DC01CB0188AB54
:102B400004C018AA02C08FEF88AB20E030E040E854
:102B500053E468A179A18AA19BA10E94F92088234E
:102B6000BCF420E030E0A90168A179A18AA19BA171
:102B70000E949B22882354F068A179A18AA19BA17D
:102B80000E946A21DC01CB018B8B04C01B8A02C02E
:102B90008FEF8B8B8B89282F30E088A9882F90E0CE
:102BA000B9010E9418048091AB039091AC03A091ED
:102BB000AD03B091AE038093970390939803A093D5
:102BC0009903B0939A038091280190912901A091D3
:102BD0002A01B0912B019C01AD0169857A858B8515
:102BE0009C850E949B221816BCF48091280190912C
:102BF0002901A0912A01B0912B019C01AD016985A9
:102C00007A858B859C850E948120DC01CB01898798
:102C10009A87AB87BC872DC08091200190912101BC
:102C2000A0912201B09123019C01AD0169857A85B3
:102C30008B859C850E949B2288232CF019861A86FE
:102C40001B861C8616C08091200190912101A091C5
:102C50002201B09123019C01AD0169857A858B85A4
:102C60009C850E948120DC01CB0189879A87AB87F4
:102C7000BC878091A7039091A803A091A903B0916C
:102C8000AA032091C3033091C4034091C50350911E
:102C9000C603BC01CD010E949F22DC01CB018D83C4
:102CA0009E83AF83B88780917C0190917D01A09134
:102CB0007E01B0917F019C01AD0169857A858B858C
:102CC0009C850E949B22181624F480918401898B94
:102CD00003C080918501898B80917C0190917D0159
:102CE000A0917E01B0917F019C01AD016D817E813B
:102CF0008F8198850E949B22181624F4809186016A
:102D00008A8B03C0809187018A8B80917C0190918E
:102D10007D01A0917E01B0917F019C01AD0169858B
:102D20007A858B859C850E94F920882389F0998972
:102D30008A89981769F480913C0190913D01A09196
:102D40003E01B0913F0189839A83AB83BC8308C065
:102D50008D819E81AF81B88589839A83AB83BC8343
:102D60008091A3039091A403A091A503B091A60321
:102D700080939B0390939C03A0939D03B0939E0329
:102D80008091240190912501A0912601B091270105
:102D90002CA53DA54EA55FA5BC01CD010E94F92043
:102DA0008823BCF48CA59DA5AEA5BFA520912401C8
:102DB000309125014091260150912701BC01CD01A0
:102DC0000E948120DC01CB018CA79DA7AEA7BFA7E5
:102DD0002DC080911C0190911D01A0911E01B09108
:102DE0001F012CA53DA54EA55FA5BC01CD010E94EC
:102DF000F92018162CF01CA61DA61EA61FA616C08C
:102E00008CA59DA5AEA5BFA520911C0130911D01EB
:102E100040911E0150911F01BC01CD010E948120F3
:102E2000DC01CB018CA79DA7AEA7BFA780919F0314
:102E30009091A003A091A103B091A2032091B703A8
:102E40003091B8034091B9035091BA03BC01CD0150
:102E50000E949F22DC01CB018D839E83AF83B887C4
:102E60008091800190918101A0918201B0918301B4
:102E70002CA53DA54EA55FA5BC01CD010E94F92062
:102E8000882324F480918801898B03C08091890173
:102E9000898B8091800190918101A0918201B091F4
:102EA00083019C01AD016D817E818F8198850E9497
:102EB0009B22181624F480918A018A8B03C080918A
:102EC0008B018A8B8091800190918101A091820178
:102ED000B09183012CA53DA54EA55FA5BC01CD01F8
:102EE0000E94F920882381F099898A89981761F4D2
:102EF0008091400190914101A0914201B091430124
:102F00008D839E83AF83B88788A599A5AAA5BBA505
:102F10008093930390939403A0939503B0939603A7
:102F200086EF91E080569F4FFC0180819181FC01EA
:102F300080819181A281B38180938F0390939003CC
:102F4000A0939103B09392038091E1039091E203E7
:102F5000A091E303B091E403BC01CD010E946A217A
:102F6000DC01CB01E82E8091D9039091DA03A09186
:102F7000DB03B091DC03BC01CD010E946A21DC01BE
:102F8000CB01F82E8091DD039091DE03A091DF0349
:102F9000B091E003BC01CD010E946A21DC01CB01AC
:102FA000082F8091D5039091D603A091D703B091BB
:102FB000D803BC01CD010E946A21DC01CB01182F8E
:102FC0008091D1039091D203A091D303B091D40307
:102FD000BC01CD010E946A21DC01CB011F921F922E
:102FE0001F921F921F921F92812C912C6894AA24E9
:102FF000A1F8CE2CEF2C212F44E050E06FE873E0D5
:103000000E94990C0F900F900F900F900F900F90BF
:10301000C0902904D0902A04E0902B04F0902C0456
:103020008091500190915101A0915201B0915301B2
:103030002D813E814F815885BC01CD010E949F2288
:10304000DC01CB019C01AD01C701B6010E948220C9
:10305000DC01CB018093290490932A04A0932B04D4
:10306000B0932C04C0902D04D0902E04E0902F0437
:10307000F09030048091540190915501A091560137
:10308000B0915701288D398D4A8D5B8DBC01CD01E2
:103090000E949F22DC01CB019C01AD01C701B6015A
:1030A0000E948220DC01CB0180932D0490932E049A
:1030B000A0932F04B0933004C0903104D090320418
:1030C000E0903304F090340480916C0190916D0194
:1030D000A0916E01B0916F0129813A814B815C8191
:1030E000BC01CD010E949F22DC01CB019C01AD01FE
:1030F000C701B6010E948220DC01CB01809331041C
:1031000090933204A0933304B0933404C0903504F8
:10311000D0903604E0903704F0903804809170012C
:1031200090917101A0917201B09173012C8D3D8D30
:103130004E8D5F8DBC01CD010E949F22DC01CB0131
:103140009C01AD01C701B601DDD7DC01CB01809345
:10315000350490933604A0933704B093380426EFD7
:1031600031E0C90189579F4FFC0180819181A28183
:10317000B3810196A11DB11DA90149575F4FFA0105
:1031800080839183A283B383C90189579F4FFC0138
:1031900080819181A281B381892B8A2B8B2BA1F411
:1031A00026EF31E0C90185579F4FFC018081918155
:1031B000A281B3810196A11DB11D25573F4FF90191
:1031C00080839183A283B38386EF91E089579F4FD9
:1031D000FC0180819181A281B381BC01CD010E945B
:1031E00096217B018C0186EF91E081579F4FFC0176
:1031F00080819181A281B3819C01AD01C801B70199
:103200000E949F22DC01CB016C017D0186EF91E0E1
:1032100085579F4FFC0180819181A281B381BC01C0
:10322000CD010E9496214B015C0186EF91E0815710
:103230009F4FFC0180819181A281B3819C01AD01EE
:10324000C501B4010E949F22DC01CB0120E030E0E7
:1032500040E85FE4BC01CD010E949F22DC01CB016C
:103260009C01AD0186EF91E080569F4FFC010081EB
:103270001181C701B60146D7DC01CB01F80180837B
:103280009183A283B38326EF31E0C9018D569F4F0E
:10329000FC0180819181A281B3810196A11DB11DA4
:1032A0002D563F4FF90180839183A283B38386EF2C
:1032B00091E08D569F4FFC0180819181A281B38165
:1032C000892B8A2B8B2BA1F426EF31E0C90189567B
:1032D0009F4FFC0180819181A281B3810196A11D44
:1032E000B11D29563F4FF90180839183A283B38397
:1032F0000E9405100000E0960FB6F894DEBF0FBEE6
:10330000CDBFDF91CF911F910F91FF90EF90DF9094
:10331000CF90BF90AF909F908F900895CF93DF9301
:10332000CDB7DEB72C970FB6F894DEBF0FBECDBF7A
:1033300084E090E074D48091550490915604A0915B
:103340005704B09158048093480190934901A09389
:103350004A01B0934B018091450490914604A0919D
:103360004704B09148048093640190936501A09351
:103370006601B093670186EF91E04EEA50E060E0AD
:1033800070E00E94763326EF31E086EF91E022561E
:103390003F4FFC013583248326EF31E086EF91E037
:1033A00020563F4FFC0137AF26AF26EF31E086EFC6
:1033B00091E021573F4FFC01338B228B26EF31E008
:1033C00086EF91E088599F4FFC013183208386EF7F
:1033D00091E026EF31E0FC013383228386EF91E018
:1033E000FC018481958121E030E0FC013183208360
:1033F00086EF91E081589F4FFC01108286EF91E0AB
:103400008A579F4FFC01108286EF91E02CE831E053
:10341000FC013187208726EF31E086EF91E02E55C1
:103420003F4F80569F4FFC013183208386EF91E010
:103430009C0121573F4F8FE692E1A3E8BAE3F901DF
:1034400080839183A283B38344E750E060E070E01F
:1034500087E593E00E94763346E750E060E070E055
:103460008BEC93E00E94763310921B0481E08093F2
:103470003B0481E090E0A0E0B0E080931C049093D6
:103480001D04A0931E04B0931F0480E00E946B0CE7
:1034900081E0809320041092230481E0809339041A
:1034A00081E090E0A0E0B0E08093240490932504B4
:1034B000A0932604B093270481E0809328041092FF
:1034C000130481E080933E0481E090E0A0E0B0E04E
:1034D0008093140490931504A0931604B0931704DA
:1034E00084E090E090931A048093190481E0809323
:1034F000180410920B0481E080933D0481E090E079
:10350000A0E0B0E080930C0490930D04A0930E040F
:10351000B0930F0484E090E0909312048093110420
:1035200081E0809310041092030481E080933C04B6
:1035300081E090E0A0E0B0E0809304049093050463
:10354000A0930604B093070484E090E090930A04EB
:103550008093090481E0809308041092E70381E0DE
:103560008093400480912C0190912D01A0912E0117
:10357000B0912F018093F1039093F203A093F30392
:10358000B093F4038091300190913101A091320108
:10359000B09133018093F5039093F603A093F70362
:1035A000B093F8038091340190913501A0913601D8
:1035B000B09137018093ED039093EE03A093EF0356
:1035C000B093F00381E090E0A0E0B0E08093E803E6
:1035D0009093E903A093EA03B093EB038091F10386
:1035E0009091F203A091F303B091F40389879A8735
:1035F000AB87BC878091F5039091F603A091F70308
:10360000B091F803BC01CD010E942710DC01CB0171
:1036100089839A83AB83BC8320E030E040E05FE4A1
:1036200069817A818B819C81E4D5882304F520E02F
:1036300030E040E05FEC69817A818B819C817BD7AF
:10364000882364F069817A818B819C813ED6DC017C
:10365000CB018D839E83AF83B88711C080E090E05B
:10366000A0E0B0E88D839E83AF83B88708C08FEF5A
:103670009FEFAFEFBFE78D839E83AF83B8879E0137
:103680002B5F3F4FCE010996AC0169E088E00E94B4
:103690008D0081E08093EC031092F90381E0809328
:1036A0003F048091380190913901A0913A01B09185
:1036B0003B018093FF0390930004A0930104B09317
:1036C000020481E090E0A0E0B0E08093FA039093E0
:1036D000FB03A093FC03B093FD030E94EE0381E083
:1036E0008093FE031092CB0381E080933A0481E043
:1036F00090E0A0E0B0E08093CC039093CD03A09342
:10370000CE03B093CF031092D1031092D203109244
:10371000D3031092D40380E090E0A0E8B0E480935B
:10372000D5039093D603A093D703B093D80380E03A
:1037300090E0A0ECB0E48093D9039093DA03A093D7
:10374000DB03B093DC031092DD031092DE031092D2
:10375000DF031092E0031092E1031092E203109253
:10376000E3031092E40380E00E946B0C81E08093FD
:10377000D0038091140190911501A0911601B09190
:1037800017018093290490932A04A0932B04B093EB
:103790002C0480910C0190910D01A0910E01B0912B
:1037A0000F0180932D0490932E04A0932F04B093C7
:1037B00030048091180190911901A0911A01B091E3
:1037C0001B018093310490933204A0933304B0938F
:1037D00034048091100190911101A0911201B091D7
:1037E00013018093350490933604A0933704B0936B
:1037F000380400002C960FB6F894DEBF0FBECDBF84
:10380000DF91CF910895CF93DF93CDB7DEB780914D
:103810001B04882319F481E080931B048091230406
:10382000882319F481E08093230480911304882372
:1038300019F481E08093130480910B04882319F418
:1038400081E080930B0480910304882319F481E0C4
:10385000809303048091E703882319F481E0809327
:10386000E7038091F903882319F481E08093F90339
:103870008091CB03882319F481E08093CB0300006F
:10388000DF91CF910895CF93DF93CDB7DEB76A97DD
:103890000FB6F894DEBF0FBECDBF80E290E09E83EE
:1038A0008D8319821A821B821C828D819E81809752
:1038B00041F458D0DC01CB0189839A83AB83BC836C
:1038C00042C081E090E09A878987CE010996FC0189
:1038D000908181E0913009F480E0882F90E0988712
:1038E0008F838F819885009719F00197B9F02BC0CD
:1038F00080E090E0A0EFBFE78F87988BA98BBA8B11
:103900001B861C861D861E868B859C85AD85BE8587
:1039100089839A83AB83BC83000015C080E090E06C
:10392000A0EFBFE78B8B9C8BAD8BBE8B1F8A188E55
:10393000198E1A8E8B899C89AD89BE8989839A8359
:10394000AB83BC83000089819A81AB81BC81BC01BF
:10395000CD016A960FB6F894DEBF0FBECDBFDF91E2
:10396000CF910895CF93DF9300D000D0CDB7DEB7CD
:1039700080E090E0A0E8BFE789839A83AB83BC83B3
:1039800089819A81AB81BC81BC01CD010F900F90E0
:103990000F900F90DF91CF910895CF93DF93CDB724
:1039A000DEB76A970FB6F894DEBF0FBECDBF80E2D8
:1039B00090E09E838D8319821A821B821C828D81E6
:1039C0009E81809741F458D0DC01CB0189839A8392
:1039D000AB83BC8342C081E090E09A878987CE01A7
:1039E0000996FC01908181E0913009F480E0882FF4
:1039F00090E098878F838F819885009719F00197C1
:103A0000B9F02BC080E090E0A0EFBFEF8F87988BDC
:103A1000A98BBA8B1B861C861D861E868B859C8572
:103A2000AD85BE8589839A83AB83BC83000015C0B6
:103A300080E090E0A0EFBFEF8B8B9C8BAD8BBE8BBB
:103A40001F8A188E198E1A8E8B899C89AD89BE8922
:103A500089839A83AB83BC83000089819A81AB817F
:103A6000BC81BC01CD016A960FB6F894DEBF0FBED3
:103A7000CDBFDF91CF910895CF93DF9300D000D0D9
:103A8000CDB7DEB780E090E0A0E8BFEF89839A83EE
:103A9000AB83BC8389819A81AB81BC81BC01CD01A0
:103AA0000F900F900F900F90DF91CF910895CF93CB
:103AB000DF93CDB7DEB76A970FB6F894DEBF0FBEBF
:103AC000CDBF80E290E09E838D8319821A821B8293
:103AD0001C828D819E81809741F45BD0DC01CB01FB
:103AE00089839A83AB83BC8345C081E090E09A8749
:103AF0008987CE010996FC01908181E0913009F41B
:103B000080E0882F90E098878F838F819885009739
:103B100019F00197B9F02EC080E090E0A8EFBFEF58
:103B20008F87988BA98BBA8B1B861C861D861E8659
:103B30008B859C85AD85BE8589839A83AB83BC8349
:103B4000000018C08FEF9FEFAFEFBFE78B8B9C8B10
:103B5000AD8BBE8B8FEF9FEFDC018F8B988FA98F82
:103B6000BA8F8B899C89AD89BE8989839A83AB83FF
:103B7000BC83000089819A81AB81BC81BC01CD01ED
:103B80006A960FB6F894DEBF0FBECDBFDF91CF911E
:103B90000895CF93DF93CDB7DEB728970FB6F8948B
:103BA000DEBF0FBECDBF1B821C821D821E8281E044
:103BB00090E098878F83CE010796FC01908181E089
:103BC000913009F480E0882F90E09A83898389817D
:103BD0009A81009719F0019751F012C080E090E0AF
:103BE000A0ECBFEF8B839C83AD83BE8309C08FEFB6
:103BF0009FEFAFEFBFE78B839C83AD83BE83000055
:103C00008B819C81AD81BE81BC01CD0128960FB610
:103C1000F894DEBF0FBECDBFDF91CF910895CF9353
:103C2000DF9300D0CDB7DEB79A83898340DFDC0114
:103C3000CB0180934D0490934E04A0934F04B09316
:103C40005004A7DFDC01CB01809341049093420430
:103C5000A0934304B093440416DEDC01CB018093AF
:103C6000490490934A04A0934B04B0934C047ADE29
:103C7000DC01CB018093450490934604A093470454
:103C8000B09348048ADEDC01CB0180935104909309
:103C90005204A0935304B0935404EEDEDC01CB0134
:103CA0008093550490935604A0935704B0935804FE
:103CB00000000F900F90DF91CF910895CF93DF9385
:103CC000CDB7DEB70000DF91CF910895CF93DF939A
:103CD000CDB7DEB726E030E040E052EC61E070E0C6
:103CE00080E090E004D00000DF91CF910895CF9361
:103CF000DF93CDB7DEB72A970FB6F894DEBF0FBEBD
:103D0000CDBF9C838B834D835E836F8378873A8797
:103D100029871092A5021092A40289859A859A8318
:103D200089838B819C81092E000CAA0BBB0B8930E7
:103D30009105A105B10508F0D2C08E55914EFC0148
:103D40000C943932AB1EC91EDC1EEF1E021F151F5C
:103D5000281F3A1F4B1F8091A4029091A5028170E9
:103D60009927892B09F0AAC08091A4029091A502FD
:103D700081609093A5028093A40229818D819E8108
:103D8000AF81B885AC01BD018AEB92E00E94E227C9
:103D9000A6C08091A4029091A50282709927892BD8
:103DA00009F08EC08091A4029091A5028260909348
:103DB000A5028093A40293C08091A4029091A502D1
:103DC00084709927892B09F07DC08091A40290917D
:103DD000A50284609093A5028093A40280C0809184
:103DE000A4029091A50288709927892B09F06CC0D4
:103DF0008091A4029091A50288609093A50280937F
:103E0000A4026DC08091A4029091A50280719927AF
:103E1000892B09F05BC08091A4029091A50280617A
:103E20009093A5028093A4025AC08091A40290911D
:103E3000A50280729927892B09F04AC08091A402BB
:103E40009091A50280629093A5028093A40247C03E
:103E50008091A4029091A50280749927892BD1F5B5
:103E60008091A4029091A50280649093A502809312
:103E7000A40235C08091A4029091A5028078992770
:103E8000892B51F58091A4029091A50280689093AE
:103E9000A5028093A4028091A4029091A502882794
:103EA0009170892BD9F48091A4029091A502916020
:103EB0009093A5028093A402000011C000000FC0DF
:103EC00000000DC000000BC0000009C0000007C0CA
:103ED000000005C0000003C0000001C000002A96D9
:103EE0000FB6F894DEBF0FBECDBFDF91CF9108951E
:103EF000CF93DF93CDB7DEB70000DF91CF91089568
:103F0000EF92FF920F931F93CF93DF9300D000D0D7
:103F10001F92CDB7DEB7198212D4DC01CB0180939A
:103F2000AA029093AB02A093AC02B093AD02209191
:103F3000AA023091AB024091AC025091AD02809147
:103F4000A6029091A702A091A802B091A9027901BE
:103F50008A01E81AF90A0A0B1B0BD801C701883E2F
:103F60009340A105B10508F43CC08091AA0290914C
:103F7000AB02A091AC02B091AD028093A6029093E7
:103F8000A702A093A802B093A9023AD0D8D3DC012B
:103F9000CB018A839B83AC83BD838091A6029091E1
:103FA000A702A091A802B091A9022A813B814C816D
:103FB0005D8179018A01E81AF90A0A0B1B0BD80105
:103FC000C701883E9340A105B10538F081E090E03B
:103FD0009093AF028093AE0204C01092AF02109291
:103FE000AE0281E0898389810F900F900F900F902E
:103FF0000F90DF91CF911F910F91FF90EF90089557
:10400000CF93DF93CDB7DEB78091B00291E0980FE8
:104010009093B002882361F081E090E09093AF022A
:104020008093AE028091B00281508093B00207C0AD
:104030000E943D118091B00281508093B002DF91C7
:10404000CF910895CF93DF93CDB7DEB728970FB602
:10405000F894DEBF0FBECDBF8FE692E1A3E8BAE3CE
:1040600089839A83AB83BC831D821E821F8218863C
:1040700010925A041092590427D428DE8091B50179
:104080009091B601FC011182108248D9F89430DF7A
:104090008091B5019091B601FC018081918121E070
:1040A000892B09F020E0822F80935904789418C05E
:1040B0008091B5019091B601FC018081918121E050
:1040C000892B09F420E0822F80935A0490915A049E
:1040D00081E0992309F080E08093590411DFEEDD3F
:1040E00080915904882321F78EDBF89480E090E0DA
:1040F00028960FB6F894DEBF0FBECDBFDF91CF91EB
:1041000008955058BB27AA270ED0C4C1B5D130F0AE
:10411000BAD120F031F49F3F11F41EF4AAC10EF47D
:10412000E095E7FB77C1E92FC6D180F3BA176207A4
:1041300073078407950718F071F49EF5F5C10EF426
:10414000E0950B2EBA2FA02D0B01B90190010C01A7
:10415000CA01A0011124FF27591B99F0593F50F4BF
:10416000503E68F11A16F040A22F232F342F442717
:10417000585FF3CF469537952795A795F04053950F
:10418000C9F77EF41F16BA0B620B730B840BBAF0DF
:104190009150A1F0FF0FBB1F661F771F881FC2F74A
:1041A0000EC0BA0F621F731F841F48F4879577955E
:1041B0006795B795F7959E3F08F0B3CF9395880F15
:1041C00008F09927EE0F97958795089596D180F07E
:1041D0009F3740F491110EF4A8C160E070E080E8D0
:1041E0009FE3089526F01B16611D711D811D18C1E6
:1041F00032C1ECD008F481E008950CD04BC143D11A
:1042000040F03AD130F021F45F3F19F003C1511171
:104210008CC12FC150D198F39923C9F35523B1F321
:10422000951B550BBB27AA2762177307840738F025
:104230009F5F5F4F220F331F441FAA1FA9F333D084
:104240000E2E3AF0E0E830D091505040E695001C38
:10425000CAF729D0FE2F27D0660F771F881FBB1FF4
:10426000261737074807AB07B0E809F0BB0B802DCE
:10427000BF01FF2793585F4F2AF09E3F510568F01A
:10428000C9C053C15F3FECF3983EDCF38695779548
:104290006795B795F7959F5FC9F7880F911D96951C
:1042A000879597F90895E1E0660F771F881FBB1F78
:1042B000621773078407BA0720F0621B730B840B25
:1042C000BA0BEE1F88F7E095089504D06894B111F9
:1042D0002CC10895F8D088F09F5790F0B92F9927F6
:1042E000B751A0F0D1F0660F771F881F991F1AF001
:1042F000BA95C9F712C0B13081F016D1B1E0089576
:1043000013C1672F782F8827B85F39F0B93FCCF3F6
:10431000869577956795B395D9F73EF490958095F6
:10432000709561957F4F8F4F9F4F0895E89409C016
:1043300097FB3EF490958095709561957F4F8F4FD8
:104340009F4F9923A9F0F92F96E9BB279395F695EE
:10435000879577956795B795F111F8CFFAF4BB0F6C
:1043600011F460FF1BC06F5F7F4F8F4F9F4F16C0D0
:10437000882311F096E911C0772321F09EE8872F5A
:10438000762F05C0662371F096E8862F70E060E016
:104390002AF09A95660F771F881FDAF7880F96958F
:1043A000879597F90895A9D080F09F3740F491112F
:1043B0000EF0BBC060E070E080E89FEB089526F44B
:1043C0001B16611D711D811D2BC045C0990F000872
:1043D000550FAA0BE0E8FEEF16161706E807F907D7
:1043E000C0F012161306E407F50798F0621B730B72
:1043F000840B950B39F40A2661F0232B242B252BF3
:1044000021F408950A2609F4A140A6958FEF811D95
:10441000811D089597F99F6780E870E060E0089536
:10442000882371F4772321F09850872B762F07C0CB
:10443000662311F499270DC09051862B70E060E03F
:104440002AF09A95660F771F881FDAF7880F9695DE
:10445000879597F908959F3F31F0915020F4879503
:1044600077956795B795880F911D9695879597F9DC
:1044700008959FEF80EC089500240A9416161706FD
:1044800018060906089500240A9412161306140645
:1044900005060895092E0394000C11F4882352F0A8
:1044A000BB0F40F4BF2B11F460FF04C06F5F7F4F60
:1044B0008F4F9F4F089557FD9058440F551F59F047
:1044C0005F3F71F04795880F97FB991F61F09F3F01
:1044D00079F087950895121613061406551FF2CF2A
:1044E0004695F1DF08C0161617061806991FF1CF7A
:1044F00086957105610508940895E5DFA0F0BEE793
:10450000B91788F4BB279F3860F41616B11D672FC2
:10451000782F8827985FF7CF869577956795B11D97
:1045200093959639C8F30895E894BB2766277727B3
:10453000CB0197F908954ADF08F48FEF08950BD067
:10454000A9CF9ADF28F09FDF18F0952309F062CFFA
:1045500090CF1124EACFAFDFA0F3959FD1F3950F51
:1045600050E0551F629FF001729FBB27F00DB11DF7
:10457000639FAA27F00DB11DAA1F649F6627B00D87
:10458000A11D661F829F2227B00DA11D621F739F70
:10459000B00DA11D621F839FA00D611D221F749F7E
:1045A0003327A00D611D231F849F600D211D822FC5
:1045B000762F6A2F11249F5750408AF0E1F088230C
:1045C0004AF0EE0FFF1FBB1F661F771F881F915019
:1045D0005040A9F79E3F510570F01CCFA6CF5F3F1A
:1045E000ECF3983EDCF3869577956795B795F7954C
:1045F000E7959F5FC1F7FE2B880F911D96958795D4
:1046000097F908951F920F920FB60F9211248F936E
:104610009F93AF93BF93CF93DF93CDB7DEB725972B
:10462000DEBFCDBF8091B5029091B602A091B702D6
:10463000B091B80289839A83AB83BC838091B9021D
:104640008D8389819A81AB81BC810196A11DB11DA9
:1046500089839A83AB83BC838D818D5F8D838D81AC
:104660008D3770F08D818D578D8389819A81AB81D3
:10467000BC810196A11DB11D89839A83AB83BC8344
:104680008D818093B90289819A81AB81BC818093AD
:10469000B5029093B602A093B702B093B80280918E
:1046A000B1029091B202A091B302B091B40201960E
:1046B000A11DB11D8093B1029093B202A093B302E9
:1046C000B093B40200000F900F900F900F900F90D6
:1046D000DF91CF91BF91AF919F918F910F900FBEBE
:1046E0000F901F901895CF93DF9300D000D01F92AA
:1046F000CDB7DEB78FE590E0FC0180818983F89427
:104700008091B5029091B602A091B702B091B80223
:104710008A839B83AC83BD838FE590E02981FC0174
:1047200020838A819B81AC81BD81BC01CD010F902A
:104730000F900F900F900F90DF91CF910895CF932E
:10474000DF9300D000D000D0CDB7DEB78FE590E08A
:10475000FC0180818D83F8948091B1029091B20226
:10476000A091B302B091B40289839A83AB83BC83D6
:1047700086E490E0FC0180818E8385E390E0FC017B
:104780008081882F90E081709927892B71F08E812C
:104790008F3F59F089819A81AB81BC810196A11D1F
:1047A000B11D89839A83AB83BC838FE590E02D8113
:1047B000FC01208389819A81AB81BC812227382F1B
:1047C000492F5A2F8E81882F90E0A0E0B0E0820F11
:1047D000931FA41FB51F880F991FAA1FBB1F880F07
:1047E000991FAA1FBB1FBC01CD0126960FB6F894D6
:1047F000DEBF0FBECDBFDF91CF910895EF92FF9244
:104800000F931F93CF93DF93CDB7DEB728970FB6E3
:10481000F894DEBF0FBECDBF6D837E838F839887F4
:104820008EDFDC01CB0189839A83AB83BC8336C0E6
:104830000E94EE3117C08D819E81AF81B8850197AE
:10484000A109B1098D839E83AF83B88789819A813D
:10485000AB81BC8188519C4FAF4FBF4F89839A83F6
:10486000AB83BC838D819E81AF81B885892B8A2BD8
:104870008B2BA1F064DF9B01AC0189819A81AB8114
:10488000BC8179018A01E81AF90A0A0B1B0BD801CD
:10489000C701883E9340A105B10568F68D819E81D0
:1048A000AF81B885892B8A2B8B2B11F600002896B7
:1048B0000FB6F894DEBF0FBECDBFDF91CF911F9131
:1048C0000F91FF90EF900895CF93DF93CDB7DEB7B0
:1048D000789484E490E0FC01208184E490E02260FC
:1048E000FC01208384E490E0FC01208184E490E0DA
:1048F0002160FC01208385E490E0FC01208185E4B7
:1049000090E02260FC01208385E490E0FC0120819E
:1049100085E490E02160FC0120838EE690E0FC01BC
:1049200020818EE690E02160FC01208381E890E008
:10493000FC01108281E890E0FC01208181E890E098
:104940002260FC01208381E890E0FC01208181E865
:1049500090E02160FC01208380E890E0FC01208150
:1049600080E890E02160FC01208381EB90E0FC0175
:10497000208181EB90E02460FC01208380EB90E0BB
:10498000FC01208180EB90E02160FC0120838AE71C
:1049900090E0FC0120818AE790E02460FC01208304
:1049A0008AE790E0FC0120818AE790E02260FC0128
:1049B00020838AE790E0FC0120818AE790E0216073
:1049C000FC0120838AE790E0FC0120818AE790E0E7
:1049D0002068FC01208381EC90E0FC011082000043
:1049E000DF91CF910895CF93DF93CDB7DEB769976D
:1049F0000FB6F894DEBF0FBECDBF888F698F888D4C
:104A0000882F90E086569F4F9A83898389819A8167
:104A1000FC0184918B838B818C83888D882F90E01F
:104A20008A579F4F9E838D838D819E81FC01849147
:104A30008F838F8188878885882309F495C088852E
:104A4000882F90E0880F991F88599F4F9A878987F0
:104A500089859A85FC0125913491CF013C872B876C
:104A60009A8789878B859C859E878D878885882FE7
:104A700090E0880F991F8E589F4F988B8F878F8556
:104A80009889FC0125913491CF013A8B298B988B21
:104A90008F8789899A899C8B8B8B898D882331F5A7
:104AA0008FE590E0FC0180818F8BF8948D859E8549
:104AB000FC018081982F8C8180958923282F8D85FA
:104AC0009E85FC0120838B899C89FC018081982F25
:104AD0008C8180958923282F8B899C89FC012083D8
:104AE0008FE590E02F89FC0120833FC0898D8230C3
:104AF00021F58FE590E0FC0180818E8BF8948D8507
:104B00009E85FC018081982F8C8180958923282F98
:104B10008D859E85FC0120838B899C89FC01908179
:104B20008C81292F282B8B899C89FC0120838FE580
:104B300090E02E89FC01208318C08FE590E0FC01F5
:104B400080818D8BF8948D859E85FC0190818C8170
:104B5000292F282B8D859E85FC0120838FE590E0F1
:104B60002D89FC01208301C0000069960FB6F894DE
:104B7000DEBF0FBECDBFDF91CF910895CF93DF93FE
:104B80001F92CDB7DEB789838981882F90E083306B
:104B9000910591F08430910534F48130910501F153
:104BA000029741F145C08730910571F18830910538
:104BB000A9F1049759F03CC080E890E0FC01208105
:104BC00080E890E02F77FC01208332C080E890E0FD
:104BD000FC01208180E890E02F7DFC01208328C02B
:104BE00084E490E0FC01208184E490E02F77FC01D4
:104BF00020831EC084E490E0FC01208184E490E0E6
:104C00002F7DFC01208314C080EB90E0FC0120810B
:104C100080EB90E02F77FC0120830AC080EB90E0CE
:104C2000FC01208180EB90E02F7DFC0120830000BF
:104C300000000F90DF91CF910895CF93DF93CDB710
:104C4000DEB765970FB6F894DEBF0FBECDBF8C8B75
:104C50006D8B8C89882F90E082559F4F9A83898332
:104C600089819A81FC0184918B838B818C838C89CF
:104C7000882F90E086569F4F9E838D838D819E81E5
:104C8000FC0184918F838F8188878C89882F90E0A5
:104C90008A579F4F9A87898789859A85FC018491D5
:104CA0008B878B858C878C85882309F444C08C8105
:104CB000882311F08C8162DF8C85882F90E0880F2B
:104CC000991F8E589F4F9E878D878D859E85FC01ED
:104CD00025913491CF01388B2F879E878D878F85C3
:104CE00098899A8B898B8FE590E0FC0180818B8B72
:104CF000F8948D89882371F489899A89FC018081CF
:104D0000982F888580958923282F89899A89FC0185
:104D100020830BC089899A89FC0190818885292F7D
:104D2000282B89899A89FC0120838FE590E02B89C3
:104D3000FC01208301C0000065960FB6F894DEBF29
:104D40000FBECDBFDF91CF910895CF93DF93CDB745
:104D5000DEB761970FB6F894DEBF0FBECDBF898B6B
:104D60008989882F90E082559F4F9A838983898112
:104D70009A81FC0184918B838B818C838989882F14
:104D800090E086569F4F9E838D838D819E81FC018E
:104D900084918F838F8188878989882F90E08A57B3
:104DA0009F4F9A87898789859A85FC0184918B8793
:104DB0008B858C878C85882319F480E090E025C052
:104DC0008C81882311F08C81D9DE8C85882F90E02E
:104DD000880F991F84589F4F9E878D878D859E854C
:104DE000FC0125913491CF01388B2F879E878D87C9
:104DF0008F859889FC01908188858923882319F003
:104E000081E090E002C080E090E061960FB6F894F7
:104E1000DEBF0FBECDBFDF91CF910895CF93DF935B
:104E200000D000D01F92CDB7DEB78B836C834D834B
:104E300019821A8235C061E08C81FFDE8D81882362
:104E400091F48B8182DF9C018A81882F90E0A901F7
:104E500002C0440F551F8A95E2F7CA01982F898135
:104E6000892B898317C08B8170DFAC018A81882FE1
:104E700090E027E030E0B901681B790BCB019A0183
:104E800002C0220F331F8A95E2F7C901982F89814A
:104E9000892B898360E08C81D0DE8A818F5F8A8351
:104EA0008A81883040F289810F900F900F900F9087
:104EB0000F90DF91CF910895CF93DF93CDB7DEB7F9
:104EC000F89481E0DF91CF910895CF93DF9300D0E4
:104ED000CDB7DEB79A8389838FE590E029813A8147
:104EE000F9012081FC01208300000F900F90DF91D9
:104EF000CF910895CF93DF9300D01F92CDB7DEB747
:104F00009B838A838A819B81FC01848D882F90E01A
:104F10002A813B81820F931F835A9F4FFC0180811E
:104F200089838A819B81FC01848D882F90E0019682
:104F30008F739078992324F40197806C9F6F01966A
:104F4000282F8A819B81FC01248F8A819B81FC010F
:104F5000868997892981FC0120838A819B81FC01B4
:104F600080899189FC0180818370282F20648A8147
:104F70009B81FC0180899189FC0120838A819B812E
:104F8000FC01238D8A819B81FC01948D81E029178E
:104F900009F080E0882379F08A819B81FC01828975
:104FA0009389FC0120818A819B81FC0182899389FC
:104FB0002F7DFC01208300000F900F900F90DF9158
:104FC000CF910895CF93DF93CDB7DEB729970FB672
:104FD000F894DEBF0FBECDBF9C838B834D835E8371
:104FE0006F837887298780E099E0ADE3B0E02D8179
:104FF0003E814F815885BC01CD010E94FB31DA0111
:10500000C9010197A109B109B695A795979587950B
:105010009A8389838B819C81FC018089918922E01C
:10502000FC0120838D819E81AF81B8858115914ED1
:10503000A105B10529F089819A8181159041F0F08F
:105040008B819C81FC0180899189FC01108280E820
:1050500094E8AEE1B0E02D813E814F815885BC01DE
:10506000CD010E94FB31DA01C9010197A109B10903
:10507000B695A795979587959A83898389819A8113
:10508000292F33278B819C81FC0184859585FC0128
:1050900020838B819C81FC01868597852981FC0179
:1050A00020838B819C81FC01108E8B819C81FC0173
:1050B000848995892985FC0120838B819C81FC0151
:1050C00082899389FC0120818B819C81FC018289EA
:1050D00093892061FC0120838B819C81FC01828962
:1050E0009389FC0120818B819C81FC0182899389B9
:1050F0002860FC0120838B819C81FC01828993893B
:10510000FC0120818B819C81FC018289938920682C
:10511000FC0120838B819C81FC0182899389FC01A5
:1051200020818B819C81FC01828993892F7DFC01E8
:105130002083000029960FB6F894DEBF0FBECDBFC6
:10514000DF91CF910895CF93DF9300D0CDB7DEB735
:105150009A83898389819A81FC01818D882F90E0CF
:105160009C01205C3F4F89819A81FC01828D882FB0
:1051700090E0A901481B590BCA018F7399270F9022
:105180000F90DF91CF910895CF93DF9300D0CDB7EB
:10519000DEB79A83898389819A81FC01218D898177
:1051A0009A81FC01928D81E0291709F080E0882323
:1051B00019F08FEF9FEF0FC089819A81FC01828DDA
:1051C000882F90E029813A81820F931F4D96FC0130
:1051D0008081882F90E00F900F90DF91CF910895FC
:1051E000CF93DF9300D01F92CDB7DEB79B838A8326
:1051F0008A819B81FC01218D8A819B81FC01928D9A
:1052000081E0291709F080E0882319F08FEF9FEFE4
:105210001CC08A819B81FC01828D882F90E02A81AD
:105220003B81820F931F4D96FC01808189838A8187
:105230009B81FC01828D8F5F282F2F738A819B8138
:10524000FC01228F8981882F90E00F900F900F90A2
:10525000DF91CF910895CF93DF9300D000D0CDB7E9
:10526000DEB79C838B838B819C81FC01838D89833A
:105270008B819C81FC01848D8A8399818A81981716
:1052800068F08981882F90E02FE330E0281B390BEC
:105290008A81882F90E0820F931F0BC08A81282F6C
:1052A00030E08981882F90E0A901481B590BCA0181
:1052B00001970F900F900F900F90DF91CF9108956D
:1052C000CF93DF9300D0CDB7DEB79A8389838981EE
:1052D0009A81FC01908D81E08927882309F04DC0D7
:1052E00089819A81FC0182899389FC018081882FC0
:1052F00090E080729927892B69F489819A81FC0159
:1053000080899189FC018081882F90E080749927A1
:10531000892B11F481E001C080E0882379F18FE5C9
:1053200090E0FC01808188237CF089819A81FC01D6
:1053300082899389FC018081882F90E0807299276F
:10534000892B11F081E001C080E0882349F2898136
:105350009A81FC0180899189FC018081882F90E0ED
:105360008072992721E0892B09F420E0222309F497
:10537000B7CF89819A81BEDDB3CF00000F900F9027
:10538000DF91CF910895CF93DF93CDB7DEB7289704
:105390000FB6F894DEBF0FBECDBF9F838E836887A4
:1053A0008E819F8121E0FC01208F8E819F81FC01F5
:1053B000238D8E819F81FC01848D281779F48E8145
:1053C0009F81FC0180899189FC018081882F90E078
:1053D00080729927892B11F081E001C080E0882339
:1053E00059F18FE590E0FC0180818C8365DD898334
:1053F00089818823D9F08E819F81FC0186899789D4
:105400002885FC0120838E819F81FC018089918900
:10541000FC0180818370282F20648E819F81FC0194
:1054200080899189FC0120831982E2CFCE01049604
:105430004CDD81E090E06EC08E819F81FC01838D08
:10544000882F90E001968F739078992324F4019728
:10545000806C9F6F01968B838E819F81FC01948D60
:1054600081E02B81291709F080E08823F9F08FE58E
:1054700090E0FC0180818095881F8827881F882301
:1054800059F38E819F81FC0180899189FC01808183
:10549000882F90E08072992721E0892B09F420E081
:1054A0002223D1F28E819F8125DDD6CF8E819F81EF
:1054B000FC01838D882F90E02E813F81820F931F06
:1054C000835A9F4F2885FC0120838FE590E0FC01E3
:1054D00080818D83F1DC8A838A818823B1F08E817B
:1054E0009F812B81FC01238F8E819F81FC0182890A
:1054F0009389FC0120818E819F81FC01828993899F
:105500002062FC0120831A82E7CFCE010596DDDC04
:1055100081E090E028960FB6F894DEBF0FBECDBFB5
:10552000DF91CF910895CF93DF9300D0CDB7DEB751
:105530009A8389832FED31E089819A81FC0131833F
:10554000208389819A81FC011382128200000F90CE
:105550000F90DF91CF910895CF93DF9300D0CDB717
:10556000DEB79A83898380E090E00F900F90DF91FF
:10557000CF910895CF93DF9300D0CDB7DEB79A8354
:10558000898300000F900F90DF91CF910895CF9302
:10559000DF9300D0CDB7DEB79A83898389819A8162
:1055A000C2DF2DEC31E089819A81FC0131832083B7
:1055B00029813A8188EE93E0A0E0B0E0F90184838C
:1055C0009583A683B78300000F900F90DF91CF9152
:1055D0000895CF92DF92EF92FF920F931F93CF9394
:1055E000DF93CDB7DEB72E970FB6F894DEBF0FBEB0
:1055F000CDBF9A8389837C836B835E834D83388799
:105600002F831A870987FC86EB86DE86CD86898103
:105610009A81BDDF2BEB31E089819A81FC013183D6
:10562000208389819A812B813C81FC0135872487E5
:1056300089819A812D813E81FC0137872687898166
:105640009A812F813885FC01318B208B89819A8149
:1056500029853A85FC01338B228B89819A812B85A0
:105660003C85FC01358B248B89819A812D853E8573
:10567000FC01378B268B89819A81FC01118E8981EF
:105680009A81FC01128E89819A81FC01138E898195
:105690009A81FC01148E00002E960FB6F894DEBF9E
:1056A0000FBECDBFDF91CF911F910F91FF90EF9073
:1056B000DF90CF900895CF93DF9300D000D0CDB787
:1056C000DEB79C838B838B819C81FC0180899189CF
:1056D000FC018081882F90E08470992721E0892B3C
:1056E00009F020E0222371F18B819C81FC018689E5
:1056F0009789FC01808189838B819C81FC01818D4C
:105700008F5F8F738A838B819C81FC01928D81E0F6
:105710002A81291709F480E08823D9F08B819C81A4
:10572000FC01818D882F90E02B813C81820F931F9B
:105730004D962981FC0120838B819C812A81FC016B
:10574000218F07C08B819C81FC0186899789FC0190
:10575000808100000F900F900F900F90DF91CF91FC
:1057600008951F920F920FB60F9211242F933F931B
:105770004F935F936F937F938F939F93AF93BF9359
:10578000EF93FF93CF93DF93CDB7DEB78AEB92E031
:1057900092DF0000DF91CF91FF91EF91BF91AF9128
:1057A0009F918F917F916F915F914F913F912F9139
:1057B0000F900FBE0F901F9018951F920F920FB66B
:1057C0000F9211242F933F934F935F936F937F9387
:1057D0008F939F93AF93BF93EF93FF93CF93DF93F9
:1057E000CDB7DEB78AEB92E085DB0000DF91CF9189
:1057F000FF91EF91BF91AF919F918F917F916F91A9
:105800005F914F913F912F910F900FBE0F901F907E
:105810001895CF92DF92EF92FF920F931F93CF9341
:10582000DF9300D000D0CDB7DEB79A8389837C8325
:105830006B8389819A810197C9F48B819C81019640
:10584000A9F40F2EF6ECCF2ED12CF02D0F2EF2EC6A
:10585000EF2EF12CF02D01EC10E020EC30E044ECC8
:1058600050E065EC70E08AEB92E0B3DE00000F9050
:105870000F900F900F90DF91CF911F910F91FF909C
:10588000EF90DF90CF900895CF93DF93CDB7DEB741
:105890006FEF7FEF81E090E0BCDFDF91CF91089563
:1058A000CF93DF9300D0CDB7DEB79A838983898108
:1058B0009A8186D600000F900F90DF91CF910895C6
:1058C0000F931F93CF93DF9300D000D0CDB7DEB7F7
:1058D0009A8389837C836B838B819C81892B19F4C8
:1058E00080E090E014C089819A81FC0180819181DF
:1058F0000296FC01008111818B819C81FED6AC0156
:105900002B813C8189819A81B901F80109950F9019
:105910000F900F900F90DF91CF911F910F910895ED
:10592000CF93DF93CDB7DEB728970FB6F894DEBFDD
:105930000FBECDBF9C838B837E836D8358874F833F
:105940001A8219828F8198859C01215031093887EC
:105950002F8321E0892B09F420E0222319F18B8188
:105960009C81FC0180819181FC01208131818D81AC
:105970009E81AC014F5F5F4F5E834D83FC01408190
:105980008B819C81642FF901099521E0892B09F411
:1059900020E0222331F089819A8101969A838983BC
:1059A000D1CF000089819A8128960FB6F894DEBF86
:1059B0000FBECDBFDF91CF910895CF93DF9300D07D
:1059C00000D0CDB7DEB79A8389837C836B832B812C
:1059D0003C8189819A81B90173DF0F900F900F90FC
:1059E0000F90DF91CF910895CF93DF9300D01F9256
:1059F000CDB7DEB79A8389836B8389819A81FC0155
:105A000080819181FC01208131814B8189819A8142
:105A1000642FF90109950F900F900F90DF91CF91AE
:105A20000895CF93DF9300D000D01F92CDB7DEB79B
:105A30009A8389836B835D834C838B81882F90E06D
:105A4000A0E0B0E02C813D81E981FA81AC01BD018B
:105A5000CF01C4D00F900F900F900F900F90DF9157
:105A6000CF910895CF93DF9300D000D000D0CDB771
:105A7000DEB79A8389837C836B835E834D838B81BE
:105A80009C81092E000CAA0BBB0B2D813E81E98164
:105A9000FA81AC01BD01CF012CD026960FB6F89447
:105AA000DEBF0FBECDBFDF91CF910895CF93DF93BF
:105AB00000D000D000D0CDB7DEB79A8389837C8335
:105AC0006B835E834D838B819C81CC01A0E0B0E031
:105AD0002D813E81E981FA81AC01BD01CF017ED0EB
